{
    "contractName": "Counter",
    "abi": [
        {
            "inputs": [],
            "name": "increment",
            "outputs": [],
            "stateMutability": "nonpayable",
            "type": "function"
        },
        {
            "inputs": [],
            "name": "number",
            "outputs": [
                {
                    "internalType": "uint256",
                    "name": "",
                    "type": "uint256"
                }
            ],
            "stateMutability": "view",
            "type": "function"
        },
        {
            "inputs": [
                {
                    "internalType": "uint256",
                    "name": "newNumber",
                    "type": "uint256"
                }
            ],
            "name": "setNumber",
            "outputs": [],
            "stateMutability": "nonpayable",
            "type": "function"
        }
    ],
    "bytecode": "6080806040523460135760d2908160188239f35b5f80fdfe60808060405260043610156011575f80fd5b5f3560e01c9081633fb5c1cb1460865781638381f58a14606f575063d09de08a146039575f80fd5b34606b575f366003190112606b575f545f1981146057576001015f55005b634e487b7160e01b5f52601160045260245ffd5b5f80fd5b34606b575f366003190112606b576020905f548152f35b34606b576020366003190112606b576004355f5500fea26469706673582212204f2ea2bfe776b01d3da753c61d7c0ccfa39004b87ed38feffaf81300ff237b0264736f6c63430008210033",
    "sourcePath": "/Users/zhouxing/Documents/rcc/new-golang/lesson-04/examples/11-erc20-foundry/src/Counter.sol",
    "compiler": {
        "name": "solc",
        "version": "0.8.33+commit.64118f21"
    },
    "functionHashes": {
        "increment()": "d09de08a",
        "number()": "8381f58a",
        "setNumber(uint256)": "3fb5c1cb"
    },
    "gasEstimates": {
        "creation": {
            "codeDepositCost": "42000",
            "executionCost": "99",
            "totalCost": "42099"
        },
        "external": {
            "increment()": "24404",
            "number()": "2269",
            "setNumber(uint256)": "22236"
        }
    }
}